:100000000C9434000C943E000C943E000C943E0082
:100010000C943E000C943E000C943E000C943E0068
:100020000C943E000C943E000C943E000C943E0058
:100030000C943E000C943E000C943E000C943E0048
:100040000C943E000C943E000C943E000C943E0038
:100050000C943E000C943E000C943E000C943E0028
:100060000C943E000C943E0011241FBECFEFD8E04C
:10007000DEBFCDBF0E9458000C9491000C9400008C
:100080001092C50087E68093C40088E18093C10088
:1000900086E08093C20008958091C00087FFFCCF66
:1000A0008091C60008958091C000807890E0089506
:1000B00084B1816384B985B18E7C85B90E9440008A
:1000C0008091C00087FFFCCF0E944C00813471F406
:1000D0002D9A289A2FEF3BE742E9215030404040CB
:1000E000E1F700C0000028982D98EACF8E3441F740
:1000F00083E090E02C9A2FEF33EC49E02150304020
:100100004040E1F700C000002C982FEF33EC49E0AD
:10011000215030404040E1F700C00000019751F706
:06012000CFCFF894FFCFE1
:00000001FF
