:100000000C9434000C9449000C9449000C94490061
:100010000C9449000C9449000C9449000C9449003C
:100020000C9449000C9449000C9449000C9449002C
:100030000C9449000C9449000C9449000C9449001C
:100040000C9449000C9449000C9449000C9449000C
:100050000C9449000C9449000C9449000C944900FC
:100060000C9449000C94490011241FBECFEFD8E036
:10007000DEBFCDBF11E0A0E0B1E0EAE0F2E002C0F7
:1000800005900D92AC30B107D9F70E94BF000C94D7
:1000900003010C9400001092C50087E68093C40011
:1000A00088E18093C10086E08093C200089590911A
:1000B000C00095FFFCCF8093C60008958091C000DA
:1000C00087FF03C08091C600089580E0089580E016
:1000D00090E041E050E02BB12C632BB96BB19C0157
:1000E0002E5F3F4FFA0102C0EE0FFF1F2A95E2F785
:1000F0009F01209526232BB94E9912C0FFEF23ECC8
:1001000039E0F15020403040E1F700C00000FC0130
:10011000EE0FFF1FE80FF91FE050FF4F8081089599
:100120004F9912C04FEFE3ECF9E04150E040F0404E
:10013000E1F700C00000FC01EE0FFF1FE80FF91F00
:10014000E050FF4F81810895199912C02FEF33ECD1
:1001500049E0215030404040E1F700C00000FC0180
:10016000EE0FFF1FE80FF91FE050FF4F8281089547
:1001700001968430910509F0AECF80E0089584B1F6
:10018000816384B98AB18C638AB98AB18F738AB961
:1001900021988BB1806C8BB9299A0E944B000E94E8
:1001A000670081110E9457000E945E00813481F433
:1001B00085B1816285B92FEF3BE742E9215030409C
:1001C0004040E1F700C0000085B18E7D85B9E7CFE2
:1001D0008E3429F783E090E02C9A2FEF33EC49E03E
:1001E000215030404040E1F700C000002C982FEF34
:1001F00033EC49E0215030404040E1F700C00000BE
:0A020000019751F7CCCFF894FFCF1F
:0C020A003132333435363738392A30238E
:00000001FF
